{
  "abi": [
    {
      "type": "constructor",
      "inputs": [
        {
          "name": "_shoeSharkToken",
          "type": "address",
          "internalType": "address"
        }
      ],
      "stateMutability": "nonpayable"
    },
    {
      "type": "function",
      "name": "SST",
      "inputs": [],
      "outputs": [
        {
          "name": "",
          "type": "address",
          "internalType": "contract ShoeSharkToken"
        }
      ],
      "stateMutability": "view"
    },
    {
      "type": "function",
      "name": "exchangeRate",
      "inputs": [],
      "outputs": [
        {
          "name": "",
          "type": "uint256",
          "internalType": "uint256"
        }
      ],
      "stateMutability": "view"
    },
    {
      "type": "function",
      "name": "getUserPoints",
      "inputs": [
        {
          "name": "user",
          "type": "address",
          "internalType": "address"
        }
      ],
      "outputs": [
        {
          "name": "",
          "type": "uint256",
          "internalType": "uint256"
        }
      ],
      "stateMutability": "view"
    },
    {
      "type": "function",
      "name": "owner",
      "inputs": [],
      "outputs": [
        {
          "name": "",
          "type": "address",
          "internalType": "address"
        }
      ],
      "stateMutability": "view"
    },
    {
      "type": "function",
      "name": "redeemAllPointsForTokens",
      "inputs": [],
      "outputs": [],
      "stateMutability": "nonpayable"
    },
    {
      "type": "function",
      "name": "redeemPointsForTokensForAddress",
      "inputs": [
        {
          "name": "pointHolder",
          "type": "address",
          "internalType": "address"
        },
        {
          "name": "points",
          "type": "uint256",
          "internalType": "uint256"
        }
      ],
      "outputs": [],
      "stateMutability": "nonpayable"
    },
    {
      "type": "function",
      "name": "renounceOwnership",
      "inputs": [],
      "outputs": [],
      "stateMutability": "nonpayable"
    },
    {
      "type": "function",
      "name": "s_pointHolders",
      "inputs": [
        {
          "name": "",
          "type": "uint256",
          "internalType": "uint256"
        }
      ],
      "outputs": [
        {
          "name": "",
          "type": "address",
          "internalType": "address"
        }
      ],
      "stateMutability": "view"
    },
    {
      "type": "function",
      "name": "s_pointsMap",
      "inputs": [
        {
          "name": "",
          "type": "address",
          "internalType": "address"
        }
      ],
      "outputs": [
        {
          "name": "",
          "type": "uint256",
          "internalType": "uint256"
        }
      ],
      "stateMutability": "view"
    },
    {
      "type": "function",
      "name": "setExchangeRate",
      "inputs": [
        {
          "name": "newRate",
          "type": "uint256",
          "internalType": "uint256"
        }
      ],
      "outputs": [],
      "stateMutability": "nonpayable"
    },
    {
      "type": "function",
      "name": "setPoint",
      "inputs": [
        {
          "name": "account",
          "type": "address",
          "internalType": "address"
        },
        {
          "name": "amount",
          "type": "uint256",
          "internalType": "uint256"
        }
      ],
      "outputs": [],
      "stateMutability": "nonpayable"
    },
    {
      "type": "function",
      "name": "setPoints",
      "inputs": [
        {
          "name": "accounts",
          "type": "address[]",
          "internalType": "address[]"
        },
        {
          "name": "amounts",
          "type": "uint256[]",
          "internalType": "uint256[]"
        }
      ],
      "outputs": [],
      "stateMutability": "nonpayable"
    },
    {
      "type": "function",
      "name": "transferOwnership",
      "inputs": [
        {
          "name": "newOwner",
          "type": "address",
          "internalType": "address"
        }
      ],
      "outputs": [],
      "stateMutability": "nonpayable"
    },
    {
      "type": "event",
      "name": "OwnershipTransferred",
      "inputs": [
        {
          "name": "previousOwner",
          "type": "address",
          "indexed": true,
          "internalType": "address"
        },
        {
          "name": "newOwner",
          "type": "address",
          "indexed": true,
          "internalType": "address"
        }
      ],
      "anonymous": false
    },
    {
      "type": "event",
      "name": "ShoeSharkRewardPoint_BatchPointSet",
      "inputs": [
        {
          "name": "length",
          "type": "uint256",
          "indexed": false,
          "internalType": "uint256"
        }
      ],
      "anonymous": false
    },
    {
      "type": "event",
      "name": "ShoeSharkRewardPoint_PointSet",
      "inputs": [
        {
          "name": "account",
          "type": "address",
          "indexed": true,
          "internalType": "address"
        },
        {
          "name": "amount",
          "type": "uint256",
          "indexed": false,
          "internalType": "uint256"
        }
      ],
      "anonymous": false
    },
    {
      "type": "error",
      "name": "OwnableInvalidOwner",
      "inputs": [
        {
          "name": "owner",
          "type": "address",
          "internalType": "address"
        }
      ]
    },
    {
      "type": "error",
      "name": "OwnableUnauthorizedAccount",
      "inputs": [
        {
          "name": "account",
          "type": "address",
          "internalType": "address"
        }
      ]
    },
    {
      "type": "error",
      "name": "ShoeSharkRewardPoint__redeemPointsForTokensForAddress__NotEnoughPoints",
      "inputs": []
    },
    {
      "type": "error",
      "name": "ShoeSharkRewardPoint__setPoints__NotEqualLength",
      "inputs": []
    }
  ],
  "bytecode": {
    "object": "0x608060405234801561001057600080fd5b50604051610c3d380380610c3d83398101604081905261002f916100d9565b338061005557604051631e4fbdf760e01b81526000600482015260240160405180910390fd5b61005e81610089565b50600380546001600160a01b0319166001600160a01b03929092169190911790556001600255610109565b600080546001600160a01b038381166001600160a01b0319831681178455604051919092169283917f8be0079c531659141344cd1fd0a4f28419497f9722a3daafe3b4186f6b6457e09190a35050565b6000602082840312156100eb57600080fd5b81516001600160a01b038116811461010257600080fd5b9392505050565b610b25806101186000396000f3fe608060405234801561001057600080fd5b50600436106100cf5760003560e01c8063aeefe31f1161008c578063db068e0e11610066578063db068e0e146101b8578063f2fde38b146101cb578063f4c90b58146101de578063f6f0e0e6146101e657600080fd5b8063aeefe31f14610169578063b8b770b014610192578063c7964257146101a557600080fd5b80632383a230146100d45780633ba0b9a914610104578063715018a61461011b5780638da5cb5b146101255780638ebb4f18146101365780639a80c4a114610156575b600080fd5b6003546100e7906001600160a01b031681565b6040516001600160a01b0390911681526020015b60405180910390f35b61010d60025481565b6040519081526020016100fb565b6101236101f9565b005b6000546001600160a01b03166100e7565b61010d610144366004610829565b60016020526000908152604090205481565b610123610164366004610921565b61020d565b61010d610177366004610829565b6001600160a01b031660009081526001602052604090205490565b6100e76101a03660046109e1565b610370565b6101236101b33660046109fa565b61039a565b6101236101c63660046109e1565b610472565b6101236101d9366004610829565b61047f565b6101236104c2565b6101236101f43660046109fa565b610539565b6102016105bf565b61020b60006105ec565b565b6102156105bf565b8051825114610237576040516328f564a160e11b815260040160405180910390fd5b60005b825181101561033157600083828151811061025757610257610a24565b60200260200101519050600083838151811061027557610275610a24565b6020026020010151905060016000836001600160a01b03166001600160a01b031681526020019081526020016000205460001480156102b45750600081115b1561030557600480546001810182556000919091527f8a35acfbc15ff81a39ae7d344fd709f28e8600b4aa8c65c6b64bfe7fe36bd19b0180546001600160a01b0319166001600160a01b0384161790555b6001600160a01b039091166000908152600160205260409020558061032981610a50565b91505061023a565b507f015fe5e6142fe7776168060d5fd0058d1dd80ae0a1163d17db7d650d143cadc9825160405161036491815260200190565b60405180910390a15050565b6004818154811061038057600080fd5b6000918252602090912001546001600160a01b0316905081565b6103a26105bf565b6001600160a01b0382166000908152600160205260409020541580156103c85750600081115b1561041957600480546001810182556000919091527f8a35acfbc15ff81a39ae7d344fd709f28e8600b4aa8c65c6b64bfe7fe36bd19b0180546001600160a01b0319166001600160a01b0384161790555b6001600160a01b03821660008181526001602052604090819020839055517fa7edf51bc67b4fa6b662aead0f2a92547f3f8d7f250f61ff4218fa017bf51083906104669084815260200190565b60405180910390a25050565b61047a6105bf565b600255565b6104876105bf565b6001600160a01b0381166104b657604051631e4fbdf760e01b8152600060048201526024015b60405180910390fd5b6104bf816105ec565b50565b6104ca6105bf565b60005b6004548110156104bf576000600482815481106104ec576104ec610a24565b60009182526020808320909101546001600160a01b031680835260019091526040909120549091508015610524576105248282610539565b5050808061053190610a50565b9150506104cd565b6105416105bf565b6001600160a01b03821660009081526001602052604090205481111561057a576040516324555e8d60e01b815260040160405180910390fd5b610584828261063c565b6001600160a01b038216600090815260016020526040812080548392906105ac908490610a69565b909155506105bb9050826106e7565b5050565b6000546001600160a01b0316331461020b5760405163118cdaa760e01b81523360048201526024016104ad565b600080546001600160a01b038381166001600160a01b0319831681178455604051919092169283917f8be0079c531659141344cd1fd0a4f28419497f9722a3daafe3b4186f6b6457e09190a35050565b600254600090600161064e8285610a82565b6106589190610a69565b6106629190610a95565b6003546040516323b872dd60e01b81523360048201526001600160a01b038681166024830152604482018490529293509116906323b872dd906064016020604051808303816000875af11580156106bd573d6000803e3d6000fd5b505050506040513d601f19601f820116820180604052508101906106e19190610ab7565b50505050565b6001600160a01b03811660009081526001602052604081205490036104bf5760005b6004548110156105bb57816001600160a01b03166004828154811061073057610730610a24565b6000918252602090912001546001600160a01b0316036107fb576004805461075a90600190610a69565b8154811061076a5761076a610a24565b600091825260209091200154600480546001600160a01b03909216918390811061079657610796610a24565b9060005260206000200160006101000a8154816001600160a01b0302191690836001600160a01b0316021790555060048054806107d5576107d5610ad9565b600082815260209020810160001990810180546001600160a01b03191690550190555050565b8061080581610a50565b915050610709565b80356001600160a01b038116811461082457600080fd5b919050565b60006020828403121561083b57600080fd5b6108448261080d565b9392505050565b634e487b7160e01b600052604160045260246000fd5b604051601f8201601f1916810167ffffffffffffffff8111828210171561088a5761088a61084b565b604052919050565b600067ffffffffffffffff8211156108ac576108ac61084b565b5060051b60200190565b600082601f8301126108c757600080fd5b813560206108dc6108d783610892565b610861565b82815260059290921b840181019181810190868411156108fb57600080fd5b8286015b8481101561091657803583529183019183016108ff565b509695505050505050565b6000806040838503121561093457600080fd5b823567ffffffffffffffff8082111561094c57600080fd5b818501915085601f83011261096057600080fd5b813560206109706108d783610892565b82815260059290921b8401810191818101908984111561098f57600080fd5b948201945b838610156109b4576109a58661080d565b82529482019490820190610994565b965050860135925050808211156109ca57600080fd5b506109d7858286016108b6565b9150509250929050565b6000602082840312156109f357600080fd5b5035919050565b60008060408385031215610a0d57600080fd5b610a168361080d565b946020939093013593505050565b634e487b7160e01b600052603260045260246000fd5b634e487b7160e01b600052601160045260246000fd5b600060018201610a6257610a62610a3a565b5060010190565b81810381811115610a7c57610a7c610a3a565b92915050565b80820180821115610a7c57610a7c610a3a565b600082610ab257634e487b7160e01b600052601260045260246000fd5b500490565b600060208284031215610ac957600080fd5b8151801515811461084457600080fd5b634e487b7160e01b600052603160045260246000fdfea2646970667358221220cac83eddb06f4f711217d20a74ca71f50aabdd02f526031c9aa066daa926889d64736f6c63430008140033",
    "linkReferences": {}
  },
  "methodIdentifiers": {
    "SST()": "2383a230",
    "exchangeRate()": "3ba0b9a9",
    "getUserPoints(address)": "aeefe31f",
    "owner()": "8da5cb5b",
    "redeemAllPointsForTokens()": "f4c90b58",
    "redeemPointsForTokensForAddress(address,uint256)": "f6f0e0e6",
    "renounceOwnership()": "715018a6",
    "s_pointHolders(uint256)": "b8b770b0",
    "s_pointsMap(address)": "8ebb4f18",
    "setExchangeRate(uint256)": "db068e0e",
    "setPoint(address,uint256)": "c7964257",
    "setPoints(address[],uint256[])": "9a80c4a1",
    "transferOwnership(address)": "f2fde38b"
  },
  "id": 24
}